{
  "contractName": "RawMaterial",
  "abi": [
    {
      "inputs": [],
      "stateMutability": "nonpayable",
      "type": "constructor"
    },
    {
      "inputs": [
        {
          "internalType": "uint256",
          "name": "",
          "type": "uint256"
        }
      ],
      "name": "details",
      "outputs": [
        {
          "internalType": "uint256",
          "name": "prod_id",
          "type": "uint256"
        },
        {
          "internalType": "string",
          "name": "name",
          "type": "string"
        },
        {
          "internalType": "uint256",
          "name": "weight",
          "type": "uint256"
        },
        {
          "internalType": "string",
          "name": "description",
          "type": "string"
        },
        {
          "internalType": "string",
          "name": "origin",
          "type": "string"
        },
        {
          "internalType": "address",
          "name": "CurrentOwner",
          "type": "address"
        }
      ],
      "stateMutability": "view",
      "type": "function",
      "constant": true
    },
    {
      "inputs": [
        {
          "internalType": "uint256",
          "name": "_prod_id",
          "type": "uint256"
        },
        {
          "internalType": "string",
          "name": "_name",
          "type": "string"
        },
        {
          "internalType": "uint256",
          "name": "_weight",
          "type": "uint256"
        },
        {
          "internalType": "string",
          "name": "_description",
          "type": "string"
        },
        {
          "internalType": "string",
          "name": "_origin",
          "type": "string"
        },
        {
          "internalType": "address",
          "name": "_CurrentOwner",
          "type": "address"
        }
      ],
      "name": "uploadMaterial",
      "outputs": [
        {
          "internalType": "bool",
          "name": "",
          "type": "bool"
        }
      ],
      "stateMutability": "nonpayable",
      "type": "function"
    },
    {
      "inputs": [
        {
          "internalType": "uint256",
          "name": "_prod_id",
          "type": "uint256"
        },
        {
          "internalType": "address",
          "name": "_NewOwner",
          "type": "address"
        }
      ],
      "name": "transferMaterial",
      "outputs": [
        {
          "internalType": "bool",
          "name": "",
          "type": "bool"
        }
      ],
      "stateMutability": "nonpayable",
      "type": "function"
    },
    {
      "inputs": [
        {
          "internalType": "uint256",
          "name": "_prod_id",
          "type": "uint256"
        }
      ],
      "name": "getDetails",
      "outputs": [
        {
          "internalType": "address",
          "name": "CURRENT_OWNER",
          "type": "address"
        },
        {
          "internalType": "address[]",
          "name": "PREVIOUS_OWNER",
          "type": "address[]"
        }
      ],
      "stateMutability": "view",
      "type": "function",
      "constant": true
    }
  ],
  "bytecode": "0x608060405234801561001057600080fd5b5033600260006101000a81548173ffffffffffffffffffffffffffffffffffffffff021916908373ffffffffffffffffffffffffffffffffffffffff16021790555042600181905550610f19806100686000396000f3fe608060405234801561001057600080fd5b506004361061004c5760003560e01c8063a005ec7a14610051578063b93a89f714610086578063e4b4f77d146100b7578063f5670ad9146100e7575b600080fd5b61006b600480360381019061006691906108be565b610117565b60405161007d969594939291906109d4565b60405180910390f35b6100a0600480360381019061009b91906108be565b61030b565b6040516100ae929190610b08565b60405180910390f35b6100d160048036038101906100cc9190610b64565b6103eb565b6040516100de9190610bbf565b60405180910390f35b61010160048036038101906100fc9190610d0f565b610607565b60405161010e9190610bbf565b60405180910390f35b600060205280600052604060002060009150905080600001549080600101805461014090610e1f565b80601f016020809104026020016040519081016040528092919081815260200182805461016c90610e1f565b80156101b95780601f1061018e576101008083540402835291602001916101b9565b820191906000526020600020905b81548152906001019060200180831161019c57829003601f168201915b5050505050908060020154908060030180546101d490610e1f565b80601f016020809104026020016040519081016040528092919081815260200182805461020090610e1f565b801561024d5780601f106102225761010080835404028352916020019161024d565b820191906000526020600020905b81548152906001019060200180831161023057829003601f168201915b50505050509080600401805461026290610e1f565b80601f016020809104026020016040519081016040528092919081815260200182805461028e90610e1f565b80156102db5780601f106102b0576101008083540402835291602001916102db565b820191906000526020600020905b8154815290600101906020018083116102be57829003601f168201915b5050505050908060050160009054906101000a900473ffffffffffffffffffffffffffffffffffffffff16905086565b6000606060008084815260200190815260200160002060050160009054906101000a900473ffffffffffffffffffffffffffffffffffffffff16600080858152602001908152602001600020600601808054806020026020016040519081016040528092919081815260200182805480156103db57602002820191906000526020600020905b8160009054906101000a900473ffffffffffffffffffffffffffffffffffffffff1673ffffffffffffffffffffffffffffffffffffffff1681526020019060010190808311610391575b5050505050905091509150915091565b60003373ffffffffffffffffffffffffffffffffffffffff1660008085815260200190815260200160002060050160009054906101000a900473ffffffffffffffffffffffffffffffffffffffff1673ffffffffffffffffffffffffffffffffffffffff1614610490576040517f08c379a000000000000000000000000000000000000000000000000000000000815260040161048790610ec3565b60405180910390fd5b8173ffffffffffffffffffffffffffffffffffffffff1660008085815260200190815260200160002060050160009054906101000a900473ffffffffffffffffffffffffffffffffffffffff1673ffffffffffffffffffffffffffffffffffffffff1614156104fe57600080fd5b60008084815260200190815260200160002060060160008085815260200190815260200160002060050160009054906101000a900473ffffffffffffffffffffffffffffffffffffffff169080600181540180825580915050600190039060005260206000200160009091909190916101000a81548173ffffffffffffffffffffffffffffffffffffffff021916908373ffffffffffffffffffffffffffffffffffffffff1602179055508160008085815260200190815260200160002060050160006101000a81548173ffffffffffffffffffffffffffffffffffffffff021916908373ffffffffffffffffffffffffffffffffffffffff1602179055506001905092915050565b600060606040518060e001604052808981526020018881526020018781526020018681526020018581526020018473ffffffffffffffffffffffffffffffffffffffff168152602001828152506000808a815260200190815260200160002060008201518160000155602082015181600101908051906020019061068c929190610747565b506040820151816002015560608201518160030190805190602001906106b3929190610747565b5060808201518160040190805190602001906106d0929190610747565b5060a08201518160050160006101000a81548173ffffffffffffffffffffffffffffffffffffffff021916908373ffffffffffffffffffffffffffffffffffffffff16021790555060c08201518160060190805190602001906107349291906107cd565b5090505060019150509695505050505050565b82805461075390610e1f565b90600052602060002090601f01602090048101928261077557600085556107bc565b82601f1061078e57805160ff19168380011785556107bc565b828001600101855582156107bc579182015b828111156107bb5782518255916020019190600101906107a0565b5b5090506107c99190610857565b5090565b828054828255906000526020600020908101928215610846579160200282015b828111156108455782518260006101000a81548173ffffffffffffffffffffffffffffffffffffffff021916908373ffffffffffffffffffffffffffffffffffffffff160217905550916020019190600101906107ed565b5b5090506108539190610857565b5090565b5b80821115610870576000816000905550600101610858565b5090565b6000604051905090565b600080fd5b600080fd5b6000819050919050565b61089b81610888565b81146108a657600080fd5b50565b6000813590506108b881610892565b92915050565b6000602082840312156108d4576108d361087e565b5b60006108e2848285016108a9565b91505092915050565b6108f481610888565b82525050565b600081519050919050565b600082825260208201905092915050565b60005b83811015610934578082015181840152602081019050610919565b83811115610943576000848401525b50505050565b6000601f19601f8301169050919050565b6000610965826108fa565b61096f8185610905565b935061097f818560208601610916565b61098881610949565b840191505092915050565b600073ffffffffffffffffffffffffffffffffffffffff82169050919050565b60006109be82610993565b9050919050565b6109ce816109b3565b82525050565b600060c0820190506109e960008301896108eb565b81810360208301526109fb818861095a565b9050610a0a60408301876108eb565b8181036060830152610a1c818661095a565b90508181036080830152610a30818561095a565b9050610a3f60a08301846109c5565b979650505050505050565b600081519050919050565b600082825260208201905092915050565b6000819050602082019050919050565b610a7f816109b3565b82525050565b6000610a918383610a76565b60208301905092915050565b6000602082019050919050565b6000610ab582610a4a565b610abf8185610a55565b9350610aca83610a66565b8060005b83811015610afb578151610ae28882610a85565b9750610aed83610a9d565b925050600181019050610ace565b5085935050505092915050565b6000604082019050610b1d60008301856109c5565b8181036020830152610b2f8184610aaa565b90509392505050565b610b41816109b3565b8114610b4c57600080fd5b50565b600081359050610b5e81610b38565b92915050565b60008060408385031215610b7b57610b7a61087e565b5b6000610b89858286016108a9565b9250506020610b9a85828601610b4f565b9150509250929050565b60008115159050919050565b610bb981610ba4565b82525050565b6000602082019050610bd46000830184610bb0565b92915050565b600080fd5b600080fd5b7f4e487b7100000000000000000000000000000000000000000000000000000000600052604160045260246000fd5b610c1c82610949565b810181811067ffffffffffffffff82111715610c3b57610c3a610be4565b5b80604052505050565b6000610c4e610874565b9050610c5a8282610c13565b919050565b600067ffffffffffffffff821115610c7a57610c79610be4565b5b610c8382610949565b9050602081019050919050565b82818337600083830152505050565b6000610cb2610cad84610c5f565b610c44565b905082815260208101848484011115610cce57610ccd610bdf565b5b610cd9848285610c90565b509392505050565b600082601f830112610cf657610cf5610bda565b5b8135610d06848260208601610c9f565b91505092915050565b60008060008060008060c08789031215610d2c57610d2b61087e565b5b6000610d3a89828a016108a9565b965050602087013567ffffffffffffffff811115610d5b57610d5a610883565b5b610d6789828a01610ce1565b9550506040610d7889828a016108a9565b945050606087013567ffffffffffffffff811115610d9957610d98610883565b5b610da589828a01610ce1565b935050608087013567ffffffffffffffff811115610dc657610dc5610883565b5b610dd289828a01610ce1565b92505060a0610de389828a01610b4f565b9150509295509295509295565b7f4e487b7100000000000000000000000000000000000000000000000000000000600052602260045260246000fd5b60006002820490506001821680610e3757607f821691505b60208210811415610e4b57610e4a610df0565b5b50919050565b7f594f5520617265206e6f7420746865206f776e6572206f66207468697320526160008201527f77206d6174657269616c73000000000000000000000000000000000000000000602082015250565b6000610ead602b83610905565b9150610eb882610e51565b604082019050919050565b60006020820190508181036000830152610edc81610ea0565b905091905056fea2646970667358221220c149cfb16828ecea2455a032ae1b331f9d65e2445ac8c03c001ceff117ed71aa64736f6c634300080a0033",
  "immutableReferences": {},
  "source": "pragma solidity >=0.4.22 <0.9.0;\ncontract RawMaterial {\n   \n    \n    struct Materialdetails{\n        \n        uint prod_id;\n        string name;\n        uint weight;\n        string  description;\n        string  origin;\n        address CurrentOwner;\n        address[] PrevOwner;\n        \n    }\n    mapping(uint => Materialdetails) public details;\n    uint timestamp;\n     address ContractOwner;\n \n    constructor() public{\n        ContractOwner = msg.sender;\n        timestamp = block.timestamp;\n    }\n    \n    function uploadMaterial(uint _prod_id,string memory _name, uint _weight, string memory _description, string memory _origin, address _CurrentOwner) public returns(bool){\n        \n        address[]memory array;\n        details[_prod_id] = Materialdetails(_prod_id,_name,_weight,_description,_origin, _CurrentOwner, array);\n        return true;\n    }\n    \n    function transferMaterial(uint _prod_id, address _NewOwner) public returns(bool){\n        // transactie overdracht van waarde ether\n        require(details[_prod_id].CurrentOwner == msg.sender, \"YOU are not the owner of this Raw materials\");\n        require(details[_prod_id].CurrentOwner != _NewOwner);\n        details[_prod_id].PrevOwner.push(details[_prod_id].CurrentOwner);\n        details[_prod_id].CurrentOwner = _NewOwner;\n        return true;\n    \n    }\n    \n    function getDetails(uint _prod_id) public view returns(address CURRENT_OWNER, address[] memory PREVIOUS_OWNER){\n        return(details[_prod_id].CurrentOwner, details[_prod_id].PrevOwner);\n        \n    }\n}",
  "sourcePath": "/Users/musaab/cookiechain/contracts/RawMaterial.sol",
  "compiler": {
    "name": "solc",
    "version": "0.8.10+commit.fc410830.Emscripten.clang"
  },
  "schemaVersion": "3.4.3",
  "updatedAt": "2021-12-09T21:08:57.874Z",
  "networkType": "ethereum",
  "devdoc": {
    "kind": "dev",
    "methods": {},
    "version": 1
  },
  "userdoc": {
    "kind": "user",
    "methods": {},
    "version": 1
  }
}